{
  "contractName": "TodoList",
  "abi": [
    {
      "constant": true,
      "inputs": [],
      "name": "taskcount",
      "outputs": [
        {
          "name": "",
          "type": "uint256"
        }
      ],
      "payable": false,
      "stateMutability": "view",
      "type": "function",
      "signature": "0x8bd48089"
    }
  ],
  "bytecode": "0x608060405260008055348015601357600080fd5b506099806100226000396000f3fe608060405260043610603e5763ffffffff7c01000000000000000000000000000000000000000000000000000000006000350416638bd4808981146043575b600080fd5b348015604e57600080fd5b5060556067565b60408051918252519081900360200190f35b6000548156fea165627a7a72305820782e5de10ddc97365f3d6b1e265795d1b9811d0c06d8ac91831e1f012a50765e0029",
  "source": "// SPDX-License-Identifier: Unlicensed\r\n// pragma solidity ^0.5.0;\r\npragma solidity >=0.4.17 <0.9.0;\r\n\r\ncontract TodoList {\r\n    uint256 public taskcount = 0;\r\n}",
  "sourcePath": "C:/Users/KIIT/Documents/Projects/eth-todo-list/contracts/TodoList.sol",
  "compiler": {
    "name": "solc",
    "version": "0.5.0+commit.1d4f565a.Emscripten.clang"
  },
  "schemaVersion": "3.0.1",
  "updatedAt": "2022-02-06T19:25:48.173Z",
  "devdoc": {
    "methods": {}
  },
  "userdoc": {
    "methods": {}
  }
}